{
  "address": "0x4321869A1c32b38aAAaB88693c36b345Fe8D34A1",
  "abi": [
    {
      "inputs": [],
      "stateMutability": "nonpayable",
      "type": "constructor"
    },
    {
      "anonymous": false,
      "inputs": [
        {
          "indexed": true,
          "internalType": "address",
          "name": "greetingSetter",
          "type": "address"
        },
        {
          "indexed": false,
          "internalType": "string",
          "name": "newGreeting",
          "type": "string"
        },
        {
          "indexed": false,
          "internalType": "bool",
          "name": "premium",
          "type": "bool"
        },
        {
          "indexed": false,
          "internalType": "uint256",
          "name": "value",
          "type": "uint256"
        }
      ],
      "name": "GreetingChange",
      "type": "event"
    },
    {
      "anonymous": false,
      "inputs": [
        {
          "indexed": true,
          "internalType": "address",
          "name": "previousOwner",
          "type": "address"
        },
        {
          "indexed": true,
          "internalType": "address",
          "name": "newOwner",
          "type": "address"
        }
      ],
      "name": "OwnershipTransferred",
      "type": "event"
    },
    {
      "inputs": [],
      "name": "greeting",
      "outputs": [
        {
          "internalType": "string",
          "name": "",
          "type": "string"
        }
      ],
      "stateMutability": "view",
      "type": "function"
    },
    {
      "inputs": [],
      "name": "owner",
      "outputs": [
        {
          "internalType": "address",
          "name": "",
          "type": "address"
        }
      ],
      "stateMutability": "view",
      "type": "function"
    },
    {
      "inputs": [],
      "name": "premium",
      "outputs": [
        {
          "internalType": "bool",
          "name": "",
          "type": "bool"
        }
      ],
      "stateMutability": "view",
      "type": "function"
    },
    {
      "inputs": [],
      "name": "renounceOwnership",
      "outputs": [],
      "stateMutability": "nonpayable",
      "type": "function"
    },
    {
      "inputs": [
        {
          "internalType": "string",
          "name": "_newGreeting",
          "type": "string"
        }
      ],
      "name": "setGreeting",
      "outputs": [],
      "stateMutability": "payable",
      "type": "function"
    },
    {
      "inputs": [],
      "name": "totalCounter",
      "outputs": [
        {
          "internalType": "uint256",
          "name": "",
          "type": "uint256"
        }
      ],
      "stateMutability": "view",
      "type": "function"
    },
    {
      "inputs": [
        {
          "internalType": "address",
          "name": "newOwner",
          "type": "address"
        }
      ],
      "name": "transferOwnership",
      "outputs": [],
      "stateMutability": "nonpayable",
      "type": "function"
    },
    {
      "inputs": [
        {
          "internalType": "address",
          "name": "",
          "type": "address"
        }
      ],
      "name": "userGreetingCounter",
      "outputs": [
        {
          "internalType": "uint256",
          "name": "",
          "type": "uint256"
        }
      ],
      "stateMutability": "view",
      "type": "function"
    },
    {
      "inputs": [],
      "name": "withdraw",
      "outputs": [],
      "stateMutability": "nonpayable",
      "type": "function"
    },
    {
      "stateMutability": "payable",
      "type": "receive"
    }
  ],
  "transactionHash": "0xda67152af9f5f1b86ea6f2a6b49bfc4489051003ccc6786fb196b76b6d26b6c0",
  "args": [],
  "numDeployments": 1,
  "solcInputHash": "749affbae58daa0d56be3e9cdc12babc",
  "bytecode": "0x60c0604052601660809081527f4275696c64696e6720436f6f6c2020417070732121210000000000000000000060a05260019061003c9082610156565b506002805460ff19169055600060035534801561005857600080fd5b5061006233610067565b610215565b600080546001600160a01b038381166001600160a01b0319831681178455604051919092169283917f8be0079c531659141344cd1fd0a4f28419497f9722a3daafe3b4186f6b6457e09190a35050565b634e487b7160e01b600052604160045260246000fd5b600181811c908216806100e157607f821691505b60208210810361010157634e487b7160e01b600052602260045260246000fd5b50919050565b601f82111561015157600081815260208120601f850160051c8101602086101561012e5750805b601f850160051c820191505b8181101561014d5782815560010161013a565b5050505b505050565b81516001600160401b0381111561016f5761016f6100b7565b6101838161017d84546100cd565b84610107565b602080601f8311600181146101b857600084156101a05750858301515b600019600386901b1c1916600185901b17855561014d565b600085815260208120601f198616915b828110156101e7578886015182559484019460019091019084016101c8565b50858210156102055787850151600019600388901b60f8161c191681555b5050505050600190811b01905550565b6108dc806102246000396000f3fe60806040526004361061008a5760003560e01c8063a413686211610059578063a413686214610113578063cea49c3c14610126578063e0a73a9314610153578063ef690cc01461017d578063f2fde38b1461019f57600080fd5b80633ccfd60b14610096578063715018a6146100ad5780638da5cb5b146100c257806397feba9d146100ef57600080fd5b3661009157005b600080fd5b3480156100a257600080fd5b506100ab6101bf565b005b3480156100b957600080fd5b506100ab61025e565b3480156100ce57600080fd5b506000546040516001600160a01b0390911681526020015b60405180910390f35b3480156100fb57600080fd5b5061010560035481565b6040519081526020016100e6565b6100ab610121366004610579565b610272565b34801561013257600080fd5b5061010561014136600461062a565b60046020526000908152604090205481565b34801561015f57600080fd5b5060025461016d9060ff1681565b60405190151581526020016100e6565b34801561018957600080fd5b50610192610344565b6040516100e691906106a0565b3480156101ab57600080fd5b506100ab6101ba36600461062a565b6103d2565b6101c7610448565b604051600090339047908381818185875af1925050503d8060008114610209576040519150601f19603f3d011682016040523d82523d6000602084013e61020e565b606091505b505090508061025b5760405162461bcd60e51b81526020600482015260146024820152732330b4b632b2103a379039b2b7321022ba3432b960611b60448201526064015b60405180910390fd5b50565b610266610448565b61027060006104a2565b565b6102956040518060600160405280602181526020016108866021913982336104f2565b60016102a1828261073b565b506001600360008282546102b591906107fb565b90915550503360009081526004602052604081208054600192906102da9084906107fb565b909155505034156102f7576002805460ff19166001179055610302565b6002805460ff191690555b60405133907f94cbd7e04dca26a7667654f6448b2ca0a40fec602118dc5fd8c82b9cf3c645ad906103399084903480151591610822565b60405180910390a250565b60018054610351906106b3565b80601f016020809104026020016040519081016040528092919081815260200182805461037d906106b3565b80156103ca5780601f1061039f576101008083540402835291602001916103ca565b820191906000526020600020905b8154815290600101906020018083116103ad57829003601f168201915b505050505081565b6103da610448565b6001600160a01b03811661043f5760405162461bcd60e51b815260206004820152602660248201527f4f776e61626c653a206e6577206f776e657220697320746865207a65726f206160448201526564647265737360d01b6064820152608401610252565b61025b816104a2565b6000546001600160a01b031633146102705760405162461bcd60e51b815260206004820181905260248201527f4f776e61626c653a2063616c6c6572206973206e6f7420746865206f776e65726044820152606401610252565b600080546001600160a01b038381166001600160a01b0319831681178455604051919092169283917f8be0079c531659141344cd1fd0a4f28419497f9722a3daafe3b4186f6b6457e09190a35050565b61053983838360405160240161050a93929190610847565b60408051601f198184030181529190526020810180516001600160e01b03166395ed019560e01b17905261053e565b505050565b61025b8160006a636f6e736f6c652e6c6f679050600080835160208501845afa505050565b634e487b7160e01b600052604160045260246000fd5b60006020828403121561058b57600080fd5b813567ffffffffffffffff808211156105a357600080fd5b818401915084601f8301126105b757600080fd5b8135818111156105c9576105c9610563565b604051601f8201601f19908116603f011681019083821181831017156105f1576105f1610563565b8160405282815287602084870101111561060a57600080fd5b826020860160208301376000928101602001929092525095945050505050565b60006020828403121561063c57600080fd5b81356001600160a01b038116811461065357600080fd5b9392505050565b6000815180845260005b8181101561068057602081850181015186830182015201610664565b506000602082860101526020601f19601f83011685010191505092915050565b602081526000610653602083018461065a565b600181811c908216806106c757607f821691505b6020821081036106e757634e487b7160e01b600052602260045260246000fd5b50919050565b601f82111561053957600081815260208120601f850160051c810160208610156107145750805b601f850160051c820191505b8181101561073357828155600101610720565b505050505050565b815167ffffffffffffffff81111561075557610755610563565b6107698161076384546106b3565b846106ed565b602080601f83116001811461079e57600084156107865750858301515b600019600386901b1c1916600185901b178555610733565b600085815260208120601f198616915b828110156107cd578886015182559484019460019091019084016107ae565b50858210156107eb5787850151600019600388901b60f8161c191681555b5050505050600190811b01905550565b8082018082111561081c57634e487b7160e01b600052601160045260246000fd5b92915050565b606081526000610835606083018661065a565b93151560208301525060400152919050565b60608152600061085a606083018661065a565b828103602084015261086c818661065a565b91505060018060a01b038316604083015294935050505056fe53657474696e67206e6577206772656574696e6720272573272066726f6d202573a2646970667358221220754fb86c52d4adb65cf6146f720c4319d08b7b8d57b1fdc0f6341a56e4a920b764736f6c63430008110033",
  "devdoc": {
    "author": "BuidlGuidl",
    "kind": "dev",
    "methods": {
      "owner()": {
        "details": "Returns the address of the current owner."
      },
      "renounceOwnership()": {
        "details": "Leaves the contract without owner. It will not be possible to call `onlyOwner` functions anymore. Can only be called by the current owner. NOTE: Renouncing ownership will leave the contract without an owner, thereby removing any functionality that is only available to the owner."
      },
      "setGreeting(string)": {
        "params": {
          "_newGreeting": "(string memory) - new greeting to save on the contract"
        }
      },
      "transferOwnership(address)": {
        "details": "Transfers ownership of the contract to a new account (`newOwner`). Can only be called by the current owner."
      }
    },
    "version": 1
  },
  "userdoc": {
    "kind": "user",
    "methods": {
      "setGreeting(string)": {
        "notice": "Function that allows anyone to change the state variable \"greeting\" of the contract and increase the counters"
      },
      "withdraw()": {
        "notice": "Function that allows the owner to withdraw all the Ether in the contract The function can only be called by the owner of the contract as defined by the isOwner modifier"
      }
    },
    "notice": "A smart contract that allows changing a state variable of the contract and tracking the changes It also allows the owner to withdraw the Ether in the contract",
    "version": 1
  },
  "storageLayout": {
    "storage": [
      {
        "astId": 7,
        "contract": "contracts/YourContract.sol:YourContract",
        "label": "_owner",
        "offset": 0,
        "slot": "0",
        "type": "t_address"
      },
      {
        "astId": 144,
        "contract": "contracts/YourContract.sol:YourContract",
        "label": "greeting",
        "offset": 0,
        "slot": "1",
        "type": "t_string_storage"
      },
      {
        "astId": 147,
        "contract": "contracts/YourContract.sol:YourContract",
        "label": "premium",
        "offset": 0,
        "slot": "2",
        "type": "t_bool"
      },
      {
        "astId": 150,
        "contract": "contracts/YourContract.sol:YourContract",
        "label": "totalCounter",
        "offset": 0,
        "slot": "3",
        "type": "t_uint256"
      },
      {
        "astId": 154,
        "contract": "contracts/YourContract.sol:YourContract",
        "label": "userGreetingCounter",
        "offset": 0,
        "slot": "4",
        "type": "t_mapping(t_address,t_uint256)"
      }
    ],
    "types": {
      "t_address": {
        "encoding": "inplace",
        "label": "address",
        "numberOfBytes": "20"
      },
      "t_bool": {
        "encoding": "inplace",
        "label": "bool",
        "numberOfBytes": "1"
      },
      "t_mapping(t_address,t_uint256)": {
        "encoding": "mapping",
        "key": "t_address",
        "label": "mapping(address => uint256)",
        "numberOfBytes": "32",
        "value": "t_uint256"
      },
      "t_string_storage": {
        "encoding": "bytes",
        "label": "string",
        "numberOfBytes": "32"
      },
      "t_uint256": {
        "encoding": "inplace",
        "label": "uint256",
        "numberOfBytes": "32"
      }
    }
  }
}